:020000022000DC
:1070000000000420797302006173020063730200C0
:1070100065730200677302006973020000000000DC
:107020000000000000000000000000006B73020080
:107030006D730200000000006F73020071730200A4
:10704000AD96020073730200C19B0200F1A502001D
:1070500073730200737302003D9A0200737302009F
:107060007373020073730200737302007373020080
:107070007373020073730200737302007373020070
:1070800073730200B5880200737302007373020009
:107090007373020073730200FDCA0200737302006F
:1070A0007373020073730200737302007373020040
:1070B0007373020073730200000000000000000000
:1070C0007373020073730200737302007373020020
:1070D0007373020073730200737302007373020010
:1070E00073730200737302007373020000000000E8
:1070F00000000000737302000000000073730200C0
:10710000000000000000000000000000000000007F
:10711000000000000000000000000000000000006F
:10712000000000000000000000000000000000005F
:10713000000000000000000000000000000000004F
:10714000000000000000000000000000000000003F
:10715000000000000000000000000000000000002F
:10716000000000000000000000000000000000001F
:10717000000000000000000000000000000000000F
:1071800000000000000000000000000000000000FF
:1071900000000000000000000000000000000000EF
:1071A00000000000000000000000000000000000DF
:1071B00000000000000000000000000000000000CF
:1071C00000000000000000000000000000000000BF
:1071D00000000000000000000000000000000000AF
:1071E000000000000000000000000000000000009F
:1071F000000000000000000000000000000000008F
:10720000364937480A1A02D0072291438D4635493C
:1072100035480A1A06D00722914381F309880222D1
:1072200082F3148831483249324A00F045F8324836
:107230003249334A00F040F832483349334A00F0CB
:107240003BF833483349344A00F036F83348344980
:10725000344A00F031F834483449354A00F02CF80B
:1072600034483549354A00F027F835483549002279
:1072700000F02DF834483549002200F028F8344851
:107280003449091A082903DB002202600430016036
:10729000314A90471F482049884205D0026804308F
:1072A00003B4904703BCF7E700208646EC46002075
:1072B00000212A4A9047FEE7884207D0521A05D09B
:1072C000037801300B700131013AF9D170478842DF
:1072D00002D002700130FAE770470000000004207D
:1072E00000E00320000004200000042018EC02004D
:1072F000E82A00206C2B0020D4730200D473020013
:107300005CDB020018EC0200E82A0020E82A0020DA
:1073100068DC020068DC020068DC020068DC020055
:1073200068DC020068DC020068DC020068DC020045
:1073300018EC02009CEC02006C2B00206C2B00204F
:107340006C2B0020E43E0020E43E0020E43E0020C0
:10735000E43E0020E45E0020A173020071B102004F
:10736000FEE7FEE7FEE7FEE7FEE7FEE7FEE7FEE7F5
:10737000FEE7FEE700F002B8FFF7FCBF0F484FF052
:107380000701884385460E4880470E48016841F44E
:1073900070010160BFF34F8FBFF36F8FFFF730BFF6
:1073A00009480A490A4A884207D0521A05D0037888
:1073B00001300B700131013AF9D17047000004200F
:1073C0008191020088ED00E068DC0200E82A0020DC
:0473D000E82A002087
:1073D4007047000007B5044B0093044A402300F0B3
:1073E40032F803B05DF804FBF57302006D2B002046
:1073F4002DE9F84389461446B2B10F4B0F4E0325CD
:10740400002743F00108224609EB0701002004F09D
:1074140097F90744241A48B933782BB14FF47A40CA
:10742400C047013D02D13570BDE8F88301233370B4
:10743400002CE8D1F8E700BF70DC02006C2B0020C0
:10744400704704F0B1B9F0B595B01C46164608462D
:107454000D4601F0CAFD1A9B0D93CDE90864002482
:107464002346082205A928460A948DF82C400C943A
:1074740001F0D9FD079B0293BDF81830ADF80C302C
:10748400BDF81A30ADF80E309DF814308DF8114067
:1074940003F00302012A1DD1BDF81440059EC3F375
:1074A400C203C4F383148DF81030A20008230EA97C
:1074B400284601F0B8FDC6F3952608AB0093224692
:1074C40002AB0EA9304600F033FB284601F091FDD3
:1074D40015B0F0BD022AF8D1BDF81640C3F3C203BB
:1074E400A4098DF810300827082C264628BF082642
:1074F4003B4632460EA9284601F095FDA41B08AB75
:1075040002AA31460EA8374400F076FB002CEBD1DA
:10751400DBE7000008B5FFF794FF0421034800F0FF
:1075240077FA034B01225A7108BD00BF58DC0200F0
:10753400E82A0020037813F0040216D003F00303B2
:10754400012B03D0022B09D0012070470A68008860
:107554000232C0F3831002440A60F5E70B684288E4
:10756400023303EB92130B60EEE710467047000002
:107574002DE9F04F87B00446851C06A8002300F8C7
:10758400113D0E46904601F027F8444A5368336093
:107594009368516803F580735B1A924602F21C46A5
:1075A40002F5836902F21447AB421BD30023B8F1FE
:1075B400000F6BD0012262F3010343F0040364F370
:1075C4008913DAF804209DF80700D1B20331154479
:1075D4004AF82130CAF8045001F022F8012007B01B
:1075E400BDE8F08F0121304601F03BFA484601F036
:1075F4004EFA384601F04BFA0DF1180BDAF8080090
:107604004BF8100DC0B203300AEB80005946FFF767
:1076140091FF029BA0B9DAB20AEB8202D16803910E
:107624009A1C0133DBB20AEB83030292D3F80CB049
:1076340001F00303012B21D0022B03D083460AE07F
:10764400D8B2E0E7BDF80E309B0903334FEA1B4B79
:1076540002EB93030293384601F01CFA10B1029B2B
:10766400CAF808305946304601F0FBF9DAF8083018
:10767400DAF8042003F580739B1A95E7BDF80C3003
:10768400C3F383134FEA1B4B1344E3E7022262F371
:10769400010343F0040364F39F5392E7802C00201A
:1076A400064B074810B500221A7001F057FC044637
:1076B40010B9044801F0D8FC204610BD802C0020ED
:1076C400BCDB020094DC020030B50A4C71B10A4AFA
:1076D4000A49121BD20800239A4201D1002030BD6E
:1076E40031F82350854202D00133F5E7034654F8BC
:1076F4003300F4E7D0DB020058DC0200E82A002063
:10770400094B013903EBC000032909D8DFE801F074
:107714000A020406042070470079704740797047D4
:107724000020704702207047D0DB0200034BD3E9EE
:107734000130C31A58425841704700BF802C0020C2
:107744002DE9F04186B0FFF7F1FF0546002840F02F
:10775400E780744CC4F81804BFF34F8FA06806AEDA
:1077640046F8100DC0B2033004EB80003146FFF739
:10777400E1FE029B18B1D4F81824002A53D0DAB2DF
:10778400991C013304EB8202DBB204EB8303D2685D
:10779400DB68049302F00303022B039202914FD19E
:1077A400BDF80E3060484FEA93184746502F28BF63
:1077B400502767F38F1307F10801ADF80E3001F07D
:1077C400E5FB0546002800F0968001F00EFC03A9B5
:1077D40000230822284601F01BFC0299CE43F6B28E
:1077E4000136B600C9B20331B74204EB810124D992
:1077F40008233246BF1B284601F00AFCFFB24B495E
:1078040006F108033A46284601F002FC029B08F1FF
:10781400030803EB98030293D4F81834002B43D1E4
:10782400D4F8106453E062689A4204D8A2602846EF
:1078340006B0BDE8F081D8B295E708233A46E2E7FE
:10784400012B58D1BDF80C303748C3F383110629F6
:1078540028BF062161F3891302318900ADF80C3089
:1078640001F094FB0546002845D001F0BEFB00233F
:10787400082203A9284601F0CBFB0026BDF80C2002
:10788400C2F38312B31C96424FEA8303C4D2029913
:107894004A1CC9B20331029204EB81010422284636
:1078A40001F0B6FB0136E9E7284601F0A2FBFFF739
:1078B4003DFF80F00100C5B2B9E7F3685B7923B1FD
:1078C400336829461B6830469847F3681E68002EC3
:1078D400F3D1284601F08DFB06A800F8116D00F0E5
:1078E4007BFED4F818340BB9029BA3609DF8070003
:1078F40000F096FEDBE7D4F8104454B90C4B0D4865
:107904000D49C01AC008000440F0020000F068F8F5
:10791400CDE7236820469B689847E3681C68ECE73A
:10792400002584E7802C0020BCDB02008C2C002086
:10793400D0DB020000DC0200A0DC02002DE9F347EA
:1079440080460F46924601A9012218469946FFF740
:107954000FFE214D78B3019C0026A11C4E4506EB79
:10796400010231D100211D4801F050F880F31000CC
:10797400631CDBB205EB8303000440EA1840D860C3
:10798400E3B20333012115F8232068F3C50205F897
:10799400232035F8232066F3891225F8232055F88F
:1079A400232067F39F2245F8232061F301026FF33C
:1079B400820205F823202B781BB1FFF7C1FE0028B3
:1079C400FBD102B0BDE8F087D2B205EB82025AF8CF
:1079D4002630D3600136C1E7802C00209C30002083
:1079E40000231A46FFF7AABF13B502AC012344F8DB
:1079F400042D2246FFF7A2FF02B010BD07B5CDE962
:107A0400002302236A46FFF799FF03B05DF804FBE5
:107A140030B50F49D1F81024002314463CB9C4688A
:107A2400237152B9C1F810042260184630BDE468CD
:107A340025799D4206D02468F0E7D2681168216058
:107A44001060F2E701330A2BE7D14FF0FF33ECE784
:107A5400802C0020084A38B50123D2F81044137052
:107A64001D4604B938BDE3685D71236820465B6830
:107A74009847E3681C68F4E7802C0020037A052B00
:107A840010B50C460FD0437A23B1084A0849204662
:107A940001F061F80749204601F05DF82046BDE891
:107AA400104001F04DB8002AF8D0F3E7EBDC0200F7
:107AB400F0DC020042E50200C38873B504460D46BB
:107AC40033B1144A00921449144A284601F043F889
:107AD400217A05291CD0637A4BB1A088FFF710FEE8
:107AE4000F4B104953F82020284601F034F8227A2D
:107AF4000D4BA08853F822600021FFF7E5FD0B49E8
:107B040003463246284602B0BDE8704001F023B86F
:107B140002B070BDEBDC0200FBDC0200F3DC02000F
:107B2400B8DC0200F0DC020020DD020013DD0200FC
:107B34002DE9F04385B01F460C9D002306460C46F4
:107B4400904695F80C902B7329463846FFF7B4FFFE
:107B5400B8F1060F09D8DFE808F00412181F28331B
:107B640040003146284600F0F6FF002229463846F8
:107B7400FFF784FF85F80C9005B0BDE8F083226818
:107B84003146284600F0E7FFEFE7D4E90023314609
:107B9400284600F0E0FFE8E7A36800933146D4E903
:107BA4000023284600F0D7FFDFE7E3680193A368CA
:107BB40000933146D4E90023284600F0CCFFD4E7F3
:107BC40023690293E3680193A36800933146D4E9DF
:107BD4000023284600F0BFFFC7E7636903932369C6
:107BE4000293E3680193A36800933146D4E9002328
:107BF400284600F0B0FFB8E708292DE9F84F804681
:107C04000E4617461C463AD8002593F80C901D736F
:107C140019461046FFF750FFDFF884A0DFF884B060
:107C2400AE422ED918F805205946204600F093FF9D
:107C34000135082DF4D11849DFF86CB0204600F066
:107C44008AFF4FF0000A564520D918F80A507E2DB5
:107C540003D8284605F002FB00B92E252A465946CA
:107C6400204600F078FF0AF1010ABAF1080FEAD1C0
:107C7400012221463846FFF701FF84F80C90BDE845
:107C8400F88F5146204600F066FFD1E703492046AD
:107C940000F061FFE7E700BFE6DC0200E4DC02007D
:107CA400E2DC0200DCDC0200E8DC0200C30710B501
:107CB40007D4F0234008054A145C234019431154A7
:107CC40010BD0901C9B20F23F4E700BF68310020D9
:107CD40030B5094B1C78094B196800239C4202DC1F
:107CE4000022104630BD11F83350854201EBC30227
:107CF400F7D00133F2E700BF38310020883100208B
:107D040070B504460D46FFF7E3FF30B1436823B175
:107D140029462046BDE87040184770BD034B04480F
:107D240019680022490800F06CBA00BF3C310020F9
:107D34004031002010B5C0B2FFF7CAFF04460078F6
:107D440001F06AFE63785A1E53425341834208D1BC
:107D5400044BD3E90023134303D1BDE81040FFF7DC
:107D6400DDBF10BD603100202DE9F348394A4308D6
:107D74000446D35CC2074CBF1B0903F00F030D4636
:107D8400042B39D8DFE803F00328303D410099B3D0
:107D94000121FFF78BFF02A8002600F8016D00F017
:107DA4001BFC2D4D0121A4F12007C4F1200001FA90
:107DB40007FC21FA00F04CEA000C01FA04FBD5E9B7
:107DC40000014BEA00024CEA0103C5E900239DF8D7
:107DD400070000F025FC0FE0002914BF0221002158
:107DE4002046FFF763FF07E049B10321FFF75EFF79
:107DF40001212046FFF784FF02B0BDE8F08801218D
:107E0400EEE70029F8D10421EAE709B10321E7E705
:107E1400FFF74CFF29462046FFF772FF02A80E4EDB
:107E240000F8015D00F0D8FBA4F120070121C4F1A2
:107E3400200001FA07FC21FA00F04CEA000C01FAD8
:107E440004FBD6E9000120EA0B0221EA0C03C6E98F
:107E54000023BCE768310020603100202DE9F041A7
:107E6400124E134F00243378A34208DC114BD3E99C
:107E74000023134318D0BDE8F041FFF74FBF3D681E
:107E840005EBC40815F8340001F0C6FD98F801109C
:107E94004B1E594259410A1A514215F834005141B6
:107EA400FFF762FF0134DEE7BDE8F08138310020DE
:107EB4008831002060310020092AF7B505460C46B8
:107EC40016463FD901F0CEFCD8B11F4B1F481D60A8
:107ED4001F4B204F1C70204B002120221E6005F0F8
:107EE4001CFA1E4B00200021C3E90001013CE4B24E
:107EF4000326FF2C0BD11A4A1A48002100F076F908
:107F040003E001F075FC0028DFD003B0F0BD9DF85C
:107F140006308DF8046020B203F0FC0305EBC002C8
:107F24006FF382038DF80630937815F830008DF8DE
:107F340005303A4601A901F09FFC013CE4B2002857
:107F4400D7D0E2E70720E0E788310020683100203D
:107F540038310020397D02003C310020603100209E
:107F6400617E020080DD020070B5084D084E0024D9
:107F74002B789C4201D3002070BD3368012113F893
:107F8400340001F0FFFC0134F2E700BF3831002077
:107F9400883100201FB50021039001AA44F201009A
:107FA400CDE9011100F004F805B05DF804FB000010
:107FB40010B572B6FFF74EFDFFF7C2FB0028FBD1E8
:107FC400104B114C1149E41AE408240444F0010054
:107FD400FFF706FD0E4B1B68DB0700D500BE0D49FD
:107FE40044F00200FFF7FCFCBFF34F8F0A490B4B30
:107FF400CA6802F4E0621343CB60BFF34F8F00BF43
:10800400FDE700BFD0DB020000DC02008FDD0200D0
:10801400F0ED00E09BDD020000ED00E00400FA0555
:1080240049B152B1531E1A4007D182600160838066
:10803400C260104670470E2070470920704710B583
:108044008468C2688388121B934208D3C2681340B1
:108054000268D154C3680133C360002010BD0420FA
:10806400FCE78268C3689A420AD082688388134016
:108074000268D35C0B70836801338360002070470F
:1080840005207047D0E90223D1E90201994208BFD3
:1080940090422CBF01200020704700002DE90048C9
:1080A4000C4800F0EFFB0C4BD3E9002312EB000B60
:1080B40043F1000C094BD3E900239C4508BF9345C9
:1080C4005846614603D21BF180704CF10001BDE8B3
:1080D400008800BFF02A00209031002008320020E0
:1080E40037B505460C460A4801A900F0FEFB60B10D
:1080F4000570446001A9064800F021FC18B1054848
:1081040000F0C4FB002003B030BD0420FBE700BF37
:10811400F4310020F02A0020194B1B782DE9304857
:1081240004461BB900252846BDE830880028F9D04C
:10813400037F03F0FF05002BF4D0FFF7AFFFD4E972
:108144000223994208BF904215D3236903B92377C8
:10815400D4E90530984721690029E3D0237F03F04F
:10816400FF05002BDED0D4E9022312EB010B43F10F
:10817400000CC4E902BC2146024800F094FFD2E797
:1081840098310020ACDD020013B5114B1149186879
:10819400019008235822104800F094FB044698B933
:1081A4000E4A0F4801A900F05FFA044660B90121A4
:1081B4000B4800F049FB01230A4A0948194600F01C
:1081C400ADFA094B01221A70204602B010BD00BF5F
:1081D400A8DD02009C310020F4310020518202000D
:1081E400F02A0020FFFF7F00983100203AB1036895
:1081F4005A614A1E514251411961002070470720BB
:10820400704738B5037F04460D4683B98261FFF792
:1082140045FF421941F10003C4E90223236903B174
:10822400256121460020BDE83840FFF759BF0020F2
:1082340038BD0023014603770120FFF751BF00003A
:10824400014800F01FBB00BFF02A00202DE9F74FC2
:10825400064600F001FB40B15849D1E9002312F170
:10826400807443F10005C1E900450021304600F067
:1082740002FB38B1524C236823B12068FFF74CFF4E
:10828400002323600121304600F0F5FA20B1FFF706
:1082940005FF4C4BC3E9000101A94B48484D4B4C29
:1082A4004B4F00F05CFB002844D1DFF820A1444C84
:1082B400DFF824B1504600F00CFF2368002874D086
:1082C4007BB12368D0E90201D3E90223994208BFB4
:1082D40090422CD223681B7F1BB12168504600F0CA
:1082E400E2FE504600F0EFFED0E902890746FFF7B0
:1082F400D5FEB8EB000869EB010940464B4601285E
:1083040073F1000344DB334DA8453FD9FFF798FFD1
:1083140042194FF496030021584600F01FFA002832
:108324003ED1236813B9304600F0F0F9276003B05A
:10833400BDE8F08F0378012B1DD00BD3022B11D194
:108344004FF00008204600F0BEFE002833D080F82D
:108354001C80F7E741680B7F23B901230B77204684
:1083640000F0A1FE01A9184800F024FB01A9164859
:1083740000F0F5FA97E741682B68994202D100238F
:108384002B60EFE7204600F0A7FEEBE7BA68C0E7F2
:108394000021584600F065FA3846FFF7BDFE01E0BB
:1083A4000D28F9D00023236084E7002BBFD1304689
:1083B40000F0B0F9BBE701233B70D3E79031002014
:1083C4001032002008320020F4310020ACDD02001D
:1083D40098310020FFFFB400F02A00200648074A25
:1083E40003780749D35C012213B1043002F072B858
:1083F4000C3001F01FBE00BFF82A00208C32002090
:108404003C3200200648074A03780749D35C01221E
:1084140013B1043002F008B80C3001F0B3BD00BF52
:10842400F82A00208C3200203D32002037B5057830
:10843400012D04D037D3022D2AD003B030BD037AE6
:1084440013B9FFF7CBFFF8E743681E4C19782046B1
:10845400FFF7F5FD80B11C4B01908DF800501B68AF
:1084640068469847A168E368A2885B1A9A42E8D2F2
:10847400164B01221A70E0E7A268E3689A42F1D031
:1084840002AB114A03F8080D126818469047E9E751
:10849400C36801938DF80050FFF7A0FF0A4B1B68D7
:1084A40068469847C9E70A490A48FFF7DAFD10B950
:1084B400FFF7A8FFC1E702A8032300F8083D024B19
:1084C4001B68EEE718320020143200202832002006
:1084D4003D3200202C320020F0B51F46234B89B0DA
:1084E40006461A600C4600293DD08A88204809684F
:1084F400FFF796FD002834D1A289A1681D48FFF733
:108504008FFD00282DD11C4D0FCD6C460FC495E86E
:108514000F0084E80F0073690693337C174A1848E8
:108524008DF81C70003318BF01238DF81430737C50
:10853400002B14BF0E2300238DF81530F36802932B
:10854400B36803933368019369467368009301F039
:108554002FF830B90B4B18703368013301D0FFF793
:108564003DFF09B0F0BD0720FBE700BF1432002037
:10857400183200202C320020C4DD020031840200B5
:10858400F82A00202832002010B501460E48FFF7D3
:1085940056FD0446A8B90D480D4A0378D35C63B16F
:1085A400043001F08BFF60B90A490748FFF759FD11
:1085B40038B9BDE81040FFF725BF0C3001F02EFD9F
:1085C400F1E7204610BD00BF2C320020F82A00201D
:1085D4008C3200203D32002070B5EFF3108672B665
:1085E4000C4A946801239CB993600B4B0B4DD3F850
:1085F400801029401160C3F88050D3F88410516072
:108604004FF0FF32C3F88420047006B962B670BD1F
:108614000370FAE74032002000E100E0FC06FFBDF1
:10862400084B9A6810B55AB150B9EFF3108172B67D
:10863400054A1C6814605C685460986001B962B6AD
:1086440010BD00BF4032002000E100E0435882B07A
:108654003BB10023435043580193019B012002B0D6
:1086640070471846FBE70000F8B5204B4479204ECC
:1086740043F824201F4A204B06EBC4049B1A22799A
:10868400DB081B0432B143F002001C49FFF7A8F9D0
:108694000820F8BD02680C88C2F8084590F9045017
:1086A4008A78002D4FEA4212ECB2D2B219DB144997
:1086B4004F1987F8002301226D0904F01F0402FA00
:1086C40004F441F82540427906EBC20101240C71FF
:1086D40046F832000B4943F00300FFF781F900200C
:1086E400D7E704F00F0408490A55ECE75432002098
:1086F4004C320020D0DB020010DC0200F6DD020068
:1087040000E100E018DE020014ED00E0036801223D
:108714001A607047036801225A60704773B58D0070
:1087240005F5A0750068ADB24FF480348C40002686
:10873400C0F80843C0F84843465101F5A8714559AB
:10874400019522F07F42019D40F82120C0F8444366
:108754000BB1C0F8044302B070BD00002DE9F74F1F
:108764008E0098464FF4803503688D4006F5A07955
:10877400C3F848531FFA89F9C3F8085307469819F0
:108784008A464FF0000BD3F8041522F07F44D0F84A
:108794004025C0F8401543F809B053F80930009358
:1087A400009B531A23F07F43012B0CD1254B4FF42C
:1087B400806043F0010398473B6843F809B053F8DD
:1087C40009300193019B3868D0F80495C0F84453EC
:1087D400A4EB090323F07F43012B1AD10AF5A87AED
:1087E400184B013440F82A4043F001034FF48060F1
:1087F40098473B68D3F80435994508D13B68002075
:10880400C3F84453C3F8045303B0BDE8F08F0D20FC
:10881400FAE70644C8F1FF18C6F84045D0F8043515
:10882400E21A013A22F07F4208F57F489045EED3E0
:10883400002AE3D10134C6F84045D0F80425934218
:10884400DBE700BFF0DD020003680222C3F8442323
:1088540009B1C3F8042370474FF482710068FFF72D
:10886400F5BE4FF4803303FA01F10368C3F84813EB
:10887400C3F808137047890001F5A07189B2006834
:10888400FFF7E4BE0368D3F80405704790F9043099
:10889400002B09DB5A09012103F01F0301FA03F33A
:1088A4004032024941F82230704700BF00E100E045
:1088B400024B034A1B681068184700BF543200205B
:1088C4004C32002010B561B1B2FBF3F403FB142465
:1088D400A4B244B9C0E9001484608281C3812046F3
:1088E40010BD0E20FCE70920FAE737B550E8013F38
:1088F4009DB2C48925448489A54228BF2D1B0489BF
:10890400A54202BFBFF32F8F002207E0C5EA03058B
:1089140040E80154002CE9D14FF001028DF8032006
:108924000193019B9DF803200B6002F0FF0322B129
:108934000B880068184403B030BD1846FBE70A886A
:108944004B889A4209D150E8012FC2EA024240E81A
:108954000123002BF7D1012070470020704737B561
:1089640050E8023F1FFAA3F5C488A54202BFBFF333
:108974002F8F00220DE0C48925448489A54228BF95
:108984002D1BC3EA054540E80254002CE8D14FF002
:1089940001028DF803200193019B9DF803200B60D5
:1089A40002F0FF0322B14B880068184403B030BDC5
:1089B4001846FBE70A884B889A4209D150E8022FEF
:1089C400C2EA224240E80223002BF7D1012070477B
:1089D4000020704701F01F024B090121914000EB78
:1089E400830000F01DB801F01F0301229A404B09D7
:1089F40000EB8300D14300F029B84B0901F01F01BB
:108A040050F82300C84000F00100704750E8002FE0
:108A14000B4640E8003C9CF0000FF7D1104670472D
:108A240050E8003F43EA010240E8002C9CF0000FAC
:108A3400F6D11046704750E8002F02EA010340E8DF
:108A4400003C9CF0000FF6D11046704750E8003F00
:108A540003EA010240E8002C9CF0000FF6D1104616
:108A6400704750E8003F03EB010240E8002C9CF003
:108A7400000FF6D11046704750E8003FA3EB010207
:108A840040E8002C9CF0000FF6D1104670470121FD
:108A9400FFF7C6BF0021FFF7CEBF10B590B1D0E9F4
:108AA400012301689B1ADBB20A60013BDBB2FF2B96
:108AB400026802D10020107110BD11684C1C1460B2
:108AC4000B70F2E70E20F7E737B5054602A800243D
:108AD40000F8014DFFF780FD2A686B681168994220
:108AE4000ED9481E106011F8014CEB68298A01FB6D
:108AF4000434AB6811791B1ADBB2994238BF137185
:108B04009DF80700FFF78CFD204603B030BD37B554
:108B1400054602A8002300F8013D0C46FFF75CFD62
:108B24002A681368591C1160E968641A298AB4FB1D
:108B3400F1F41C709DF80700FFF772FD03B030BD1F
:108B4400826810B504462AB14369016800699847F0
:108B54000023A36010BD0EB403B5039929B102AA82
:108B640004AB42F8043D00F073F802B05DF804EB86
:108B740003B070470A2938B504460D4602D10D21C9
:108B8400FFF7F8FFA3682268591CA160D554D4E903
:108B940001329A4204D32046BDE83840FFF7D0BFE3
:108BA40038BD00002DE9F84F9946DDE90A43174620
:108BB400824688460A460126BA420FD24E4538BF3D
:108BC4004E4613F0010B01D164B900240125B9F11B
:108BD400010F1AD909F1FF397D43F8E7B2FBF7F227
:108BE4000136E9E79B070ED5B9F1000F0CBF30251C
:108BF4002025A642EAD2013C29465046FFF7BAFF97
:108C0400002CF6D1E1E72025F3E7B8FBF5F39F420A
:108C1400E2D9DFF83890B8FBF5F3504619F80310A1
:108C240005FB1388FFF7A6FFB5FBF7F5002DF2D17E
:108C3400BBF1000F02D00CB1A64201D3BDE8F88FFE
:108C440020215046013CFFF795FFF4E72ADE02009D
:108C54002DE9F74F054690460E46002900F03A816B
:108C640016F8011B002958D0252940F0D18000278F
:108C740002E047F001071646324612F8013B2D2B5D
:108C8400F7D0302B04D02B2B05D147F00407F2E7A3
:108C940047F00207EFE700242A2B06F101021BD15B
:108CA400D8F80030191D1B68C8F800101C4416467B
:108CB40033782E2B1CD101364FF0000A314611F8BF
:108CC400012BA2F13000092814D80A2303FB0A233C
:108CD400A3F1300A0E46F1E712F8013CA3F130018A
:108CE4000929E5D80A2101FB0434303C1646D3E7B0
:108CF4004FF0000A324612F8011B01F0FB0068280D
:108D04001646F8D0692916D054D8582970D00ED8F0
:108D140025297DD03378002BA2D12B7B002B00F0AA
:108D2400D980284603B0BDE8F04FFFF709BF632997
:108D340068D06429EED1D8F80020D2F80090111D33
:108D440089EAE972C8F80010A2EBE9724FF0010B4E
:108D5400092A61DCD34538BFD3462CB1B9F1000FE1
:108D640001DB790700D5013CBA0702D5BAF1000F3F
:108D740004D0FB0702D4002C54D10024B9F1000F15
:108D840058DAC9F100092D212846FFF7F3FE07F050
:108D94000302022A05D1BAF1000F02D1002C4DD1F1
:108DA4000024CDE9004753460A2249462846FFF7E6
:108DB400F9FEAFE7732954D016D87029AAD1D8F890
:108DC40000301A1DC8F80020302128461C68FFF71F
:108DD400D1FE78212846FFF7CDFE00220823CDE9F5
:108DE400003221461022E1E775292FD0782991D14C
:108DF400D8F800100A1DC8F80020CDE900475346F2
:108E040010222CE0D8F800301A1D1978C8F8002078
:108E14002846FFF7AFFE7DE70A230BF1010B92FB17
:108E2400F3F295E7A345A9D220212846013CFFF798
:108E3400A1FEA0E77807AAD52B21A5E7A345B0D2C8
:108E440030212846013CFFF795FEA7E7D8F800102B
:108E5400CDE900470A1DC8F8002053460A220968D4
:108E6400A4E7D8F800301A1DC8F80020F907D3F891
:108E7400009012D54F46A7EB090B17F8011B41B917
:108E8400A345BFF447AF20212846013CFFF772FEFB
:108E9400F6E72846FFF76EFEEDE7B9F1000F17D0AD
:108EA400484604F08FFA0746BC4200D954B909F188
:108EB400FF3919F8011F00293FF42CAF2846FFF7AA
:108EC40059FEF6E720212846013CFFF753FEEBE765
:108ED4004F46E9E703B0BDE8F08F2DE9F047B0F85D
:108EE40006904479D2F800A09DF8208009FB04F490
:108EF400043C06460AEB0300A0420F4688BFA4EBDD
:108F0400030A191DC2F800A0B1FBF9F509FB1511FC
:108F14004DB9A9EB0104544528BF5446BAF1000FDA
:108F240004D1BDE8F0873668013DF1E704317B19CF
:108F340070182246B8F1000F0ED001461846AAEB6D
:108F4400040A04F0C1F9D145254436684C464FF073
:108F5400000128BF5446E1E71946F0E7FFF79DBD3D
:108F6400F8B546790146721E0546002393422D68E2
:108F740003D30024A64202D8F8BD0133F6E70F68F4
:108F84002846FFF7C4FD01343946F3E72DE9F843D9
:108F9400068ACD1C0746FFF797FD043E3544044678
:108FA400B5FBF6F5F0B14FF48073EDB28380C68063
:108FB400013D076081464FF00008A84512D23846AB
:108FC400FFF782FD064648B163790133637108F106
:108FD4000108C9F8000007608146EEE72046FFF764
:108FE400BFFF34462046BDE8F88301210430FFF773
:108FF40038BD10B5012104460430FFF73DFD10F0E3
:10900400FF0F04D12046BDE81040FFF7A9BF10BDF3
:109014001FB504AC44F8042D002200922246FFF749
:109024005CFF04B010BD1FB504AC44F8042D01224C
:1090340000922246FFF751FF04B010BD064B10B555
:1090440000241C70054B1C60BFF35F8F0449054866
:1090540000F013F8204610BD603200206432002076
:109064003CDE020058320020836800225A609A6075
:10907400C3E90422DA601A6070470B684A684360E7
:10908400934208BF0023016008BF436070474368F0
:1090940043B10268916852680B449342436004BF31
:1090A40000234360704770B5446806460D46206847
:1090B40018B1B3682946984718B923682B6025600E
:1090C40070BD2468F3E74368186808B102681A6041
:1090D40070474368186870474368186800B9704758
:1090E4008842026802D11A60012070470346104684
:1090F400F4E700000D4930B5A1F5947202259142C0
:1091040001D800200EE08B1ADB1093FBF5F302EB81
:10911400C30452F83330834205D802D204F1080262
:10912400EDE7606830BD2146E9E700BF98DF020043
:1091340008B5FFF7DFFF024B002808BF184608BD3B
:109144005ADE020010B50446C0B2FFF71DFA2046ED
:1091540010BD0000064B1B68082B06D1054B1B688D
:10916400032B02D8044AD05C70470020704700BF2C
:10917400300100103401001052E3020008B5674BBF
:109184001A68082A08D14FF080420021C2F80C1155
:10919400C2F81011C2F838151B68082B46D14FF0DD
:1091A40080525F4BD2F80414C3F82015D2F8081487
:1091B400C3F82415D2F80C14C3F82815D2F81014E7
:1091C400C3F82C15D2F81414C3F83015D2F81814B7
:1091D400C3F83415D2F81C14C3F84015D2F820147F
:1091E400C3F84415D2F82414C3F84815D2F8281447
:1091F400C3F84C15D2F82C14C3F85015D2F8301417
:10920400C3F85415D2F83414C3F86015D2F83814DE
:10921400C3F86415D2F83C14C3F86815D2F84014A6
:10922400C3F86C15D2F84424C3F87025FFF792FFF5
:1092340010B13C4B3C4A1A60FFF78CFF18B13B4B12
:10924400FB22C3F81825FFF785FF48B13849394B8D
:109254000A681B6822F00F0203F00F0313430B602C
:10926400FFF778FF18B1344B4FF400721A602B4BA0
:109274001B68082B09D14FF08043D3F80024D20790
:1092840044BF6FF00102C3F800242C4AD2F888309E
:1092940043F47003C2F88830BFF34F8FBFF36F8F6E
:1092A4004FF01023D3F80022002A03DBD3F8043252
:1092B400002B2FDA224B0122C3F80425D3F8002413
:1092C400002AFBD04FF010221221C2F80012D3F86A
:1092D4000024002AFBD04FF010231222C3F80422EA
:1092E400174B1A46D3F800140029FBD00021C3F809
:1092F4000415D2F80034002BFBD0BFF34F8F0F4975
:10930400104BCA6802F4E0621343CB60BFF34F8F83
:1093140000BFFDE70C4B0D4A1A6008BD3001001078
:1093240000C000408C5600404881030000F000401B
:10933400E40E0040580200104096024000ED00E0A8
:1093440000E001400400FA050C2B00200090D0033B
:10935400034BD3F804056FEA500000F00100704796
:1093640000030050024B0222C3F80C25704700BFD3
:1093740000030050024B0222C3F80825704700BFC7
:1093840000030050024B0222C3F80825704700BFB7
:1093940000030050024B0222C3F80C25704700BFA3
:1093A40000030050064AD2F80435D94301F0020103
:1093B40003F00203C2F80815C2F80C35704700BF69
:1093C400000300504FF0A043D3F810056FEAD020FB
:1093D40000F0010070470B3818BF4FF0FF307047A2
:1093E4000B207047C20708B505D5074B0322C3F805
:1093F4000427FFF7C7FF830742BF4FF0A0430C22A7
:10940400C3F82C2708BD00BF0003005038B5084C32
:1094140004F108030546002818BF1C4623682BB135
:109424001A6822605B6828469847F7E738BD00BF92
:109434007032002020B9054B01225A70FFF7E6BFB5
:10944400012802D1014A9070F8E770476832002081
:1094540020B9034B01225A70FFF7D8BF704700BFF1
:109464006832002038B50E4C2378B3B90D486360D8
:10947400A3602361E36000F0E3F8054603F022FBF8
:1094840008B900F0EBF801232370074BD3F800343C
:109494000BB10123A370284638BD8525F5E700BF2D
:1094A40068320020399402000000014037B502A858
:1094B40000230B4C00F8013DFFF78EF8E368013BF5
:1094C400E360E36833B9074BD3F8005415B900F0EF
:1094D400D7F8A5709DF80700FFF7A2F803B030BDD8
:1094E4006832002000000140012813B50DD003D3D9
:1094F40003281FD002B010BD114B0122C3F88020F5
:10950400BFF34F8FBFF36F8FF4E702A800230D4C16
:1095140000F8013DFFF760F823780BB9FFF7A2FFCD
:10952400E3689DF807000133E3600123A370FFF7AC
:1095340077F8DFE700F092F8FFF7B8FFDAE700BF4B
:1095440000E100E0683200201FB503788DF8003098
:109554004368019383688DF80830C3680393054A10
:10956400054B684653F8213052F82110984705B04E
:109574005DF804FB7C320020843200201FB50378A0
:109584008DF800304368019383688DF80830C36810
:109594000393054A054B684653F8213052F82110CD
:1095A400984705B05DF804FB7C320020843200202B
:1095B400F0B5194B0678DFF870E043F82620174B16
:1095C40094460A6943F826204B7F0EF806300C4671
:1095D40007460FCC89B06D460FC594E80F0085E8A7
:1095E4000F001EF80630049653B1BCF1000F0C4A6C
:1095F400694608BF0022381D00F03AFE09B0F0BDEC
:10960400BCF1000F074A694608BF002207F10C00AD
:1096140000F0E8FBF2E700BF843200207C32002037
:109624004D950200819502008C32002000F18040AB
:10963400002382B0036003680193019B02B070476A
:10964400054A137933B90121106093711171537173
:10965400184670478520704790320020074B1A68DF
:10966400D20704D4C02283F8002301221A604FF0E9
:1096740080430022C3F81825704700BF00E100E0D2
:109684004FF0804208B50223C2F808334FF48270C9
:10969400FFF7CCFF034B01211960D2F81834DB0328
:1096A400FBD408BD0C000040244B1B6810B573B1FB
:1096B4004FF48070FFF7BAFF4FF080430122C3F8E4
:1096C40008231F4B587910B95A711B6898471D4BD2
:1096D4001B6863B14FF48270FFF7A8FF4FF080431B
:1096E4000222C3F80823164B01201B689847164B27
:1096F4001B6863B14FF48870FFF798FF4FF0804305
:109704001022C3F808230E4B02201B6898470F4B06
:109714001B6893B10E4B00221A604FF48670FFF75A
:1097240085FF4FF080430821C3F80813044B03203E
:109734009A71BDE810401B68184710BD0001004035
:109744009032002004010040100100400C01004050
:10975400340C004000F1804000F5C040002382B08A
:10976400036003680193019B02B0704703681F2BD9
:1097740083BF03F01F03036001484FF0A04070470C
:109784000003005007B502AB43F8040D1846FFF779
:10979400EDFF019B00EB8300D0F8003723F4403346
:1097A400C0F80037D0F8003743EA0141C0F8001789
:1097B40003B05DF804FB4309012B00F01F004FF6D2
:1097C400FF7318BF4FF0FF3323FA00F000F00100DD
:1097D40070470000054B4FF0FF32072843F8202064
:1097E40084BF1B1883F85820704700BF98320020AC
:1097F40010B5184C94F86A2052BBFF211046FFF7AD
:10980400DAFF10B1A31883F830100132302AF5D1F1
:109814000021C8B2FFF7DEFF01310C29F9D106227D
:1098240000210D4803F079FD0C4BC02283F8062378
:1098340040221A604FF4BE70FFF78CFF084B4FF0C4
:109844000042C3F80423012384F86A30002010BDC9
:109854000820FCE798320020FC32002000E100E000
:1098640000600040034B93F86A00003018BF0120E9
:10987400704700BF98320020F7B5404F3B180446AC
:1098840093F93030002B944675DA8B78C3F3400398
:10989400002B15BF0025082508200C20854202D185
:1098A400042003B0F0BD57F8252001324FEA8506A5
:1098B40049D1381947F825C080F8305013B97B19BD
:1098C40083F858408B785A071BD4D8073DD502A893
:1098D40040F8084DFFF74AFF009B00EB8300D0F8E7
:1098E400003723F00203C0F800372548E20804F0EB
:1098F400070C012303FA0CF310F802C043EA0C032B
:109904008354887891F800C010F002002AD006F140
:10991400804303F5C0432402D3F8102522F44F32C8
:1099240022F44072C3F810254FEA0C4CD3F81025EA
:1099340004F47C540CF4403C44EA0C041443C3F88F
:1099440010450020ADE70135A8E702A84A7840F8A1
:10995400044DFFF70BFF019B03F5E073920040F801
:109964002320C2E7083D3D4495F8604044EA8C1C3E
:1099740085F860C095E7082093E700BF983200207F
:10998400FC32002073B5224C2518064695F9302088
:10999400072A1ADD224492F858309B09032B10D170
:1099A40002A840F8046DFFF7E1FE019AD0F81035E3
:1099B400D340DB0707D402213046FFF7E3FE02B0B1
:1099C40070BD012BF7D00321F6E7D3B2072BF6D8ED
:1099D400930003F1804303F5C043D3F8100540F02E
:1099E4000100C3F8100502F14000800080B2FFF7C7
:1099F400B1FE0029E3D095F9303054F82330002B20
:109A0400DDD0012303FA02F2024BC3F80423D6E7A4
:109A1400983200200060004007B502AB43F8040D03
:109A24001846FFF7A3FE019BD0F81005D84000F0BC
:109A3400010003B05DF804FB2DE9FF470024CDE9E4
:109A44000244584A584E594D01211368A2F5C040AA
:109A5400012B80B206D1D6F804330B4202D0FFF7B3
:109A640079FE0C430432AA424FEA4101EDD1504B36
:109A74001B68012B11D14FF4BE70FFF76BFE4FF042
:109A8400A04344F00044D3F820250292C3F82025D3
:109A9400D3F820280392C3F8202814F0FF0F1AD01B
:109AA400444F00250126344210D0AB0003F180431B
:109AB40003F5C043D3F81005D3F8101557F8253033
:109AC400C0F30520C1F3014103B198470135082DC6
:109AD4004FEA4606E7D1002C5CDA364E364FB046E4
:109AE4004FF0000A4FF0010906EB0A0393F96010E6
:109AF4004B1C3AD0CAB222F0C00404AB03EBD4032B
:109B040013F8081C02F0070309FA03F319422CD0D6
:109B140004A840F8104DFFF729FE009B03F5E073FD
:109B240050F82350C5F30145022D0CBF0321022137
:109B34002046FFF727FE04A840F80C4DFFF716FE59
:109B4400019B09FA03F3C0F8203508EB040393F9E9
:109B5400303058F8233043B19109032903D0022D42
:109B64001BD1012901D1204698470AF1010ABAF113
:109B7400040FB9D14FF0A043D3F820250292C3F8C3
:109B84002025D7F820350393C7F82035002AA7D11C
:109B9400002BA5D104B0BDE8F087032DE5D102293F
:109BA400E0E700BF00610040006000402061004029
:109BB4007C6100409832002000030050014B1B6878
:109BC400184700BF043300200D4B984237B50D46AB
:109BD40010D102A8002300F8013DFEF7FDFC094B5B
:109BE4001C7914B901221D601A719DF80700FEF753
:109BF40017FD14B9002003B030BD1120FBE700BFEE
:109C040000200040043300200023435082B0435816
:109C14000193019B02B070470A4610B54FF48E7150
:109C2400FFF7F2FF136A9168C95C136A0133136288
:109C3400C0F81C1510BD024608B54FF492710068B7
:109C4400FFF7E2FF4FF484711068FFF7DDFF13683C
:109C540001221A6008BD8B690A4610B54FF484715D
:109C640023B9FFF7D1FFD0F8183510BDFFF7CCFFAB
:109C7400536AD168D0F81805C854536A0133536243
:109C8400F3E700001FB501238DF80030044BCDE944
:109C94000110D3E900126846904705B05DF804FB53
:109CA4000C33002030B54D4AD2F8043313F4007F4E
:109CB40085B015464FD0D2F82431002B4BD04FF449
:109CC40092711046FFF7A0FF4FF40173C2F80833F6
:109CD400434B93F8291009B9012151603F490222ED
:109CE4008DF80020D1F88024C1F8802403929A6969
:109CF4000292DA6801920022C3E906226846D3E997
:109D0400001290473548D0F81C315BB134494A6998
:109D14000B6A9A420A464BD991F82830002B47D156
:109D2400FFF77AFF2D4AD2F8443193B14FF4A27170
:109D34001046FFF769FF2A4B93F8291009B1012156
:109D440011609A692AB100229A61586AD968FFF7AA
:109D540099FF05B030BDD5F804335B07D2D5D5F8EB
:109D64000831002BCED01E4C1C482146FFF773FF50
:109D7400636AA2699A422346C4D1E269E1684AB19E
:109D84002369E3600023606AA261E3616362FFF711
:109D940079FFB7E794F829200AB901226A600F4ACB
:109DA4004FF40170C2F8080300229A61586AEEE782
:109DB4004FF48E710948FFF727FF5369002BB1D088
:109DC40051690291002391688DF80030019153612B
:109DD4006846D2E900139847A4E700BF002000407A
:109DE4000C3300202DE9F843604F047991462C226E
:109DF40002FB0472064692F82A200D46002A40F01F
:109E0400AE805B490068FFF7DFFE8046002840F023
:109E1400A98029684A1C10D01F2987BF01F01F039D
:109E2400544A0B464FF0A0420120984003F5E073DA
:109E3400C2F80805032042F823006868431C0DD0CB
:109E44001F288BBF00F01F0303464A4A4FF0A0426D
:109E540003F5E0734FF0000C42F823C03368AA699D
:109E640095F814C0C3F824256A7DBCF1010F4CEAAF
:109E74000202C3F86C25C3F81405C3F80C152BD1E2
:109E8400A968481C0DD01F298BBF01F01F020A4688
:109E940038484FF0A04002F5E0724FF0000C40F853
:109EA40022C0E868421C13D01F2887BF00F01F0C93
:109EB400304A84464FF0A0424FF0010E0EFA0CFED9
:109EC4000CF5E07CC2F808E54FF0030E42F82CE0F4
:109ED400C3F80805C3F810152C236343FA18C2F815
:109EE40004902A69FA50B9F1000F20D04FF48E7112
:109EF40030682A7FFFF788FE4FF4A2713068FFF7BD
:109F040083FE33681C49C3F804131B0B59B2520176
:109F14000029D2B21EDB1948451885F80023012216
:109F2400490903F01F0302FA03F340F821303368B0
:109F34000422C3F800252C2303FB04730022C3E985
:109F4400062283F829205A61012283F82A204046F8
:109F5400BDE8F88303F00F030949CA54E7E74FF05B
:109F64000808F4E74FF01108F1E700BF0C330020B4
:109F7400A99C0200000300508000020000E100E000
:109F840014ED00E02DE9F047234F06794FF02C093A
:109F940009FB067480466569002D38D16261A160B1
:109FA40025624FF48E71006884F82850FFF72CFE68
:109FB400D8F80000012383602146FFF72DFE636873
:109FC400A14633BBD8F80050D4F814A0236A9A45AC
:109FD40012D8D8F80030D3F81C21002AFBD0012273
:109FE400DA6000202C2303FB067600237361BDE8AE
:109FF400F08794F8283043B9D5F81C31002BF8D0F9
:10A0040049462846FFF708FEE0E70F20EAE711205B
:10A01400EDE72846EBE700BF0C3300200379044A40
:10A024002C2101FB03235869003018BF012070471D
:10A034000C3300202DE9F843384E05792C2303FB1B
:10A04400056307465C6824B103684FF40170C3F8E4
:10A0540008032C2303FB0563986950B1D8690028D1
:10A064003ED024B13B684FF40172C3F8042311209D
:10A0740034E09A61D9605862D8612C2303FB0563EC
:10A0840093F829301BB910B93846FFF7D4FD4FF0C7
:10A094002C0909FB05683868D8F80430002B34D142
:10A0A4004FF4A271FFF7B0FDC1463868D0F82431EF
:10A0B400D0F80821D0F84441B2B90CB9002BF4D03F
:10A0C4002C2202FB05650022AA611BBB24BB95F868
:10A0D40029103B680122B1B11A600020BDE8F88361
:10A0E4001961DA610120C8E7002BE9D1002CE7D11E
:10A0F4004946FFF7B0FDD8F82430D8F818209A4222
:10A10400D3D82346DCE75A60E7E74FF40173C0F87D
:10A114000433E2E70320E1E70F20DFE70C330020FC
:10A124000023435082B043580193019B02B070470F
:10A134001FB501238DF80030044BCDE90110D3E99C
:10A1440000126846904705B05DF804FB38330020E0
:10A154007FB5454AD2F82461002E63D010464FF4EF
:10A164009271FFF7DDFF02238DF80030D2F88034BE
:10A17400C2F880340393D2F83C3502933B4BDA683F
:10A1840001920022C3E906226846D3E900129047EF
:10A19400354AD2F844317BB14FF4A2711046FFF72F
:10A1A400BFFF324B996939B10021C3E90611D9685F
:10A1B400D2F83C05FFF7BCFF2B4AD2F82031B3B1EB
:10A1C4004FF490711046FFF7ABFF0123D360274B88
:10A1D400596961B1D2F84C150291002299688DF841
:10A1E400002001915A616846D3E9001290471E4A43
:10A1F400D2F85831A3B14FF4AC711046FFF790FF79
:10A204001A4B596961B1D2F84C1502910022996830
:10A214008DF8002001915A616846D3E900129047F5
:10A2240004B070BDD2F81031002BB1D04FF4887156
:10A234001046FFF775FF0D4BD2F83C05996988422B
:10A24400A6D1DC69D96864B1D2F8005225F02005A2
:10A25400C2F800521A699C61DA60DE61FFF768FF98
:10A2640096E79C61FAE700BF0020004038330020E5
:10A274002DE9F843664F06799146242202FB0672C3
:10A28400044692F820200D46002A40F0BB80614924
:10A294000068FFF799FC8046002840F0B6802868E3
:10A2A400421C10D01F2887BF00F01F035A4A0346E0
:10A2B4004FF0A0420121994003F5E073C2F808155C
:10A2C400032142F8231069684B1C0DD01F298BBF52
:10A2D40001F01F030B46504A4FF0A04203F5E07310
:10A2E4004FF0000C42F823C02368AA6995F814C003
:10A2F400C3F824256A7DBCF1010F4CEA0202C3F8BD
:10A304006C25C3F80C05C3F814152BD1A968481C97
:10A314000DD01F298BBF01F01F020A463E484FF0A3
:10A32400A04002F5E0724FF0000C40F822C0E8684B
:10A33400421C13D01F2887BF00F01F0C364A8446E6
:10A344004FF0A0424FF0010E0EFA0CFE0CF5E07C2B
:10A35400C2F808E54FF0030E42F82CE0C3F80805F4
:10A36400C3F8101524237343FA18C2F804902A6919
:10A37400FA50B9F1000F2FD04FF4887120682A7F6A
:10A38400FFF7CEFE4FF490712068FFF7C9FE4FF43B
:10A3940092712068FFF7C4FE4FF4A2712068FFF7A2
:10A3A400BFFE4FF4AC712068FFF7BAFE23681B4967
:10A3B400C3F804131B0B59B252010029D2B21CDB9F
:10A3C4001748451885F800230122490903F01F03A3
:10A3D40002FA03F340F8213023680822C3F8002569
:10A3E400242303FB06730022C3E906225A610122D7
:10A3F40083F820204046BDE8F88303F00F030949A1
:10A40400CA54E9E74FF00808F4E74FF01108F1E700
:10A414003833002055A1020000030050100342000D
:10A4240000E100E014ED00E001F06043B3F1005FEF
:10A434002DE9F041074638D11F4B0679242505FB49
:10A44400063598466C69002C31D16A61A9600068B0
:10A454004FF49071FFF764FE4FF4AC713868FFF766
:10A464005FFE3B686A69A968C3F84415C3F84825C8
:10A4740001229A606A68E2B9D3F82011D3F858210E
:10A4840019B9002AF8D00F2008E0002AFBD10122D4
:10A49400DA60D3F85821002AFBD00020242303FBE0
:10A4A400068600237361BDE8F0811020FBE71120CC
:10A4B400F9E72046F7E700BF383300200379044A60
:10A4C400242101FB03235869003018BF0120704781
:10A4D40038330020F8B501F06043B3F1005F04465F
:10A4E4000F465ED10379304D242101FB03514868A6
:10A4F40020B121684FF40476C1F80863242101FBDC
:10A5040003539E6956B1D969002939D020B1236813
:10A514004FF40472C3F80423112030E09A61DF6021
:10A52400DE614FF488712068FFF7FAFD4FF4A271E1
:10A534002068FFF7F5FD2368C3F83475C3F83825A0
:10A5440016BB01221A602279242101FB02514968B9
:10A5540009BBD3F81041D3F84411D3F8240114B93A
:10A5640009B90028F5D0242303FB0255002398429F
:10A5740014BF032018469942AB6118BF0F20F8BDE1
:10A584001F61DA610126CCE7D3F8002242F02002F1
:10A59400C3F80022D7E74FF40472C3F80423002061
:10A5A400EDE71020EBE700BF383300201F2886BFFB
:10A5B40000F01F00044A4FF0A042012303FA00F008
:10A5C400C2F80805704700BF000300501F2886BF6B
:10A5D40000F01F00044A4FF0A042012303FA00F0E8
:10A5E400C2F80C05704700BF00030050114BD3F8AC
:10A5F400183107B5D3B1104B104900221A60C87F37
:10A604001B680193FF28019B03D08B7F5BB1FFF78D
:10A61400DDFF00234B770B72D1E90031084803B00A
:10A624005DF804EB1847FFF7C1FFF2E703B05DF8EC
:10A6340004FB00BF00300040183100405C330020B0
:10A64400643300202DE9F74F05796D4E01934FF0E7
:10A65400240909FB05F906EB090A93469AF81C201C
:10A6640080460C46002A40F0C68007686549384693
:10A67400FFF7AAFA0146002840F0BF80019BCAF800
:10A684000430237B46F809B0012B207800F29C802B
:10A69400FFF79CFF23781F2B86BF03F01F035A4A42
:10A6A4004FF0A04203F5E073012042F8230094F830
:10A6B4000190B9F1FF0F00F08A804846FFF786FF4A
:10A6C400B9F11F0F8BBF09F01F034B464E4A4FF0E1
:10A6D400A04203F5E073032042F82300A378FF2B84
:10A6E40078D01F2B8BBF03F01F021A4646484FF049
:10A6F400A04002F5E0724FF0040C40F822C09A46E4
:10A70400242202FB056282F82030E078D077FF280B
:10A7140016D02379002B60D0FFF758FFE3781F2B66
:10A7240086BF03F01F03384A4FF0A04203F5E073DD
:10A73400032042F82300242303FB056322799A773C
:10A744002378C7F80835A368C7F80C95C7F810A58F
:10A75400C7F82435637B227B003318BF0123022A08
:10A764003ED0032A3FD0012A01D143F00203C7F8A7
:10A774005435A379C7F8C0350723C7F80035242317
:10A784006B43F358ABB1D8F8003062791B0B58B265
:10A7940052010028DBB2D2B228DB1C4C271887F800
:10A7A40000230122400903F01F0302FA03F344F8D3
:10A7B4002030242303FB056500236B7701232B77CB
:10A7C400084603B0BDE8F08FFFF7F0FE62E74FF0F4
:10A7D400FF3983E74FF0FF3A92E7FFF7E7FE9DE783
:10A7E40043F00403C3E743F00603C0E703F00F0399
:10A7F4000748C254DDE70821E2E71121E0E700BF82
:10A804005C330020F1A502000003005000E100E0E9
:10A8140014ED00E02DE9F3410579424E24236B4306
:10A824001446F2180F46517F8046002978D1F35818
:10A8340023B114F0140F04BF0123537797E80F00DA
:10A844004FF0240C0CFB056C0CF10C0E8EE80F0081
:10A854009CF81F00FF2804D09CF81E30C3B1FFF7FA
:10A86400A5FE396821B101F06043B3F1005F06D160
:10A87400BA6882B102F06043B3F1005F0BD02423C5
:10A8840003FB056500236B77102002B0BDE8F0815F
:10A89400FFF79CFEE5E7D8F800307868C3F8441564
:10A8A400C3F84805F968C3F834250022C3F83815FD
:10A8B400C3F81821D3F818210192019A14F0010267
:10A8C40018BF0122C3F8502514F0020218BF012258
:10A8D400C3F8402522075CBF01221A6124226A437F
:10A8E400B25892B9D3F81821002AFBD0242303FBD1
:10A8F4000565E87FFF2803D0AC7F1CB1FFF766FE37
:10A904000020C2E7FFF752FEFAE714F004004FF00C
:10A91400400202D0C3F80823F2E7C3F80423B4E7E3
:10A924001120B2E75C3300207FB503788DF8043042
:10A934004368029383688DF80C30C36804930369F9
:10A944008DF81430054A064B01A853F8213052F80B
:10A954002110984707B05DF804FB00BF8033002046
:10A9640090330020F0B50646944616F8047B194A45
:10A9740042F827C0184A42F82730184B0C460FCB30
:10A9840085B06D4685E80F0023788DF80030637834
:10A994008DF80130A3788DF80230E3788DF8033018
:10A9A40023798DF8053063798DF80630A368029316
:10A9B400237B8DF80C30BCF1000F637B8DF80D30D8
:10A9C400074A3B4608BF002229463046FFF73AFEB5
:10A9D40005B0F0BD903300208033002080E30200F6
:10A9E4002DA902000220FEF7DDBC0000034B1B78FA
:10A9F40013B10020FEF7BEBCFEF7C4BCA133002097
:10AA0400F8B57B4C237805461BB100232370FFF770
:10AA1400EDFF172D00F28880DFE805F00C171743CF
:10AA240054657680888D888D959A9A9A9A9AC4C925
:10AA3400D1D9E4E4FFF7DAFF6E48FDF7FAFB6E4B79
:10AA4400002204461A702046F8BD0020FEF780FC60
:10AA5400F8B10020FEF78EFC022D0CBF4FF4E1612B
:10AA64004FF47A61644B1D704FF400404FF47A74D4
:10AA74000025E0FB01454FF4FA62002320462946F5
:10AA840002F0F7FA002201465A48BDE8F840FDF703
:10AA9400B8BBFEF767FC022D0CBFC8214FF4C87188
:10AAA400E0E70020FEF754FC40B10020FEF762FC12
:10AAB4004FF44871504B03221A70D5E7FEF752FC4D
:10AAC400C821F7E70020FEF743FC38B10020FEF769
:10AAD40051FC4FF47A61484B0422EDE7FEF742FC47
:10AAE4004FF4C871F7E70020FEF732FC48B10020AC
:10AAF400FEF740FC404B05221A7040F6CD4100227F
:10AB0400C2E7FEF72FFCF5E70020FEF74BFC3A4BBB
:10AB140006221A70002240F26661B5E70020FEF7B3
:10AB240021FC354B07221A7000248CE70120207089
:10AB3400FEF738FCEEE701202070FEF733FC00221C
:10AB44004FF40051A0E7FEF725FC2B4B0C22EAE75B
:10AB54002A482B4EFDF76DFBD5F1110504461CD098
:10AB6400D8B9012D13D0C8235D434FF400474FF4E7
:10AB74007A7000214FF4FA620023C7FB050102F04A
:10AB840078FA224601461D48FDF73BFB04460220A5
:10AB9400FEF7E8FB0123337055E70220FEF7EAFBDA
:10ABA4000023F8E7FFF722FF134B1222BBE7FFF75E
:10ABB4001DFF0020FEF7D6FB0F4B1322B3E7FFF770
:10ABC40015FF0120FEF7CEFB0B4B1422ABE7FFF77A
:10ABD4000DFF0020FEF7C6FB0120FEF7C3FB064B6A
:10ABE4001522A0E7FEF7D6FB034B1D709CE700BFC0
:10ABF40010340020E833002018340020A83300204B
:10AC0400A1330020044B1B68DB0703D5034B1878E2
:10AC1400FFF7F6BE704700BF0C3400201834002044
:10AC24002DE9F04107460C46FEF7D5FB20B9012C6F
:10AC340004D017D3022C28D0BDE8F081154D6A78D2
:10AC44002C7842B1144E154832464FF48041FDF73A
:10AC5400D8FA00B93770124BAA7812481A7002F069
:10AC640003FB08E00D48FDF7E4FA0A4B9C780C4B13
:10AC74001B78A342E0D1002CDED00B4B1B68002BC9
:10AC8400DAD02046BDE8F0411847024B07485C780B
:10AC9400E5E700BF08340020A0330020C8330020BB
:10ACA4001934002098E3020014340020AAE30200BF
:10ACB40002210078FFF7B4BF002810B54FF0000060
:10ACC40014BF03240024FEF78BFB1F288ABF0A4B02
:10ACD4004FF0A04300F01F0003EB8000D0F80027E2
:10ACE40022F44032C0F80027D0F8003743EA044386
:10ACF400C0F80037002010BD0003005008B9FEF76B
:10AD040061BB002070470000044B1B6813F0010373
:10AD140001D0FFF775BE1846704700BF0C34002001
:10AD240038B5194B1860194B10F002040546196028
:10AD340014D0174B17480E221A70012140F23332F7
:10AD4400FDF7BAF8044648B9FDF70EF9044628B9E8
:10AD54000146114A1148FDF749FA0446EB0711D59B
:10AD64000120FEF73FFB6CB921460D4A0D48FDF763
:10AD74003DFA044630B90C4A0C480121BDE838407C
:10AD8400FDF734BA204638BD0C34002014340020BA
:10AD94000834002090E30200B5AC0200CCE30200CA
:10ADA40009AC0200D0E30200E9A90200C8E30200F2
:10ADB40048B9012A02D1012907D00246012905D048
:10ADC4000AD3022905D0072070470E22044B1A70BB
:10ADD4007047034B5A707047014B9A70704700BF1D
:10ADE4000834002010B90120FFF766BF0620704721
:10ADF40008B5012202210020FFF7DAFF08B1072875
:10AE040010D1072202210120FFF7D2FF08B1072841
:10AE140008D100210A220846FFF7CAFF10B107280B
:10AE240008BF002008BD00000388102B10B502D015
:10AE3400112B1ED010BD1A4C2168B1B9012208464D
:10AE4400FFF7B6FF08B1072824D107220221012009
:10AE5400FFF7AEFF08B107281CD10422022100200D
:10AE6400FFF7A6FF08B1072814D123680133236034
:10AE7400E0E70B4A1368013B1360002BDAD1FFF7BC
:10AE8400B7FF0028D6D0074B1B68002BD2D0BDE8F3
:10AE940010401847034B1B68002BE6D09847E4E7A3
:10AEA400203400201C34002008B50020FFF79AFF4E
:10AEB40008B1062806D10120FFF794FF10B1062837
:10AEC40008BF002008BD00000D4B10B518600C46EB
:10AED40029B10120FFF712FF40B102232370094B6F
:10AEE4001B6853B9BDE81040FFF782BFFFF706FFA8
:10AEF40008B10B23F2E72070F1E7002010BD00BF7A
:10AF04001C3400202034002076DF70477ADF70473D
:10AF14007CDF70477FDF70478FDF7047B1DF70479A
:10AF240033DF704770470000024A138801331380EF
:10AF3400704700BF7C3A00200378012B01D0022B1C
:10AF440002D14068FDF726B87047FDF723B800002A
:10AF540008B50B4802F088F90020FFF7D5FE08B1C8
:10AF6400FDF718F8FFF7A0FF08B1FDF713F8FFF796
:10AF7400D7FF18B1BDE80840FDF70CB808BD00BF05
:10AF840062E4020037B51648164C154D00F024FB58
:10AF94005A23ADF80630144B1A681220002100FB26
:10AFA40002406C18A47C445401311229F9D10132B5
:10AFB400042A02D81A6003B030BD00221A600B4B79
:10AFC40008491B880A480DF1060202F01FF81328ED
:10AFD40003D8084BC340DB07EDD4FCF7DBFFEAE7FB
:10AFE4005439002024340020F8340020142B00208D
:10AFF400182B0020210108000388212B13B50446D7
:10B004002DD018D8112B21D0132B33D0102B24D1B1
:10B01400204802F029F90720FFF776FE08B1FCF773
:10B02400B9FF1D4BA1881D48198001F069FCA0B12E
:10B03400FCF7B0FF11E0522B24D0562B01D03B2B50
:10B044000BD11321A088FFF75FFFF0E7144802F04B
:10B054000BF9114B4FF6FF721A8002B010BD114864
:10B0640002F002F902A9002321F8043DA088FFF7A9
:10B0740053FFDCE7084800231A4685210088FFF7C0
:10B0840049FFD4E7044800231A4619460088FFF70D
:10B0940045FFCCE7F4E30200142B002048390020DC
:10B0A40000E402000FE402007047000008B50378D2
:10B0B4004BB9054B3B211888FFF726FF18B1BDE8B3
:10B0C4000840FCF767BF08BD142B0020072808B50B
:10B0D40013D00A280DD0042819D10D4B1321188838
:10B0E400FFF712FF30F0080311D0BDE80840FCF769
:10B0F40051BFBDE80840FFF72BBF054B1A884FF638
:10B10400FF739A4203D1034800F09FFFEAE708BDAA
:10B11400142B0020FC34002008B548B103280BD1BF
:10B124000220FFF7F1FD38B1BDE80840FCF732BF5B
:10B13400BDE80840FFF70CBF08BDFCF72BBF0000BB
:10B1440008B50849084801F0B9FA08B1FCF722FF2C
:10B15400F721054801F0C7FA18B1BDE80840FCF72B
:10B1640019BF08BDADB002003439002000B5874DC9
:10B174000FCDB1B005AC0FC495E80300844B854AEC
:10B1840001934FF4807384E80300CDE90323029311
:10B19400814A072301A905A8FDF79EF908B1FCF728
:10B1A400F9FE4FF480410020FCF77AFA08B1FCF76D
:10B1B400F1FEFCF7AFF9FCF7E7FF08B1FCF7EAFE94
:10B1C400764A77480121FDF711F808B1FCF7E2FE51
:10B1D40074490320FFF7A4FD08B1FCF7DBFE05A9C1
:10B1E4000020FFF771FE08B1FCF7D4FEFDF726FF3F
:10B1F40008B1FCF7CFFE01F029FC08B1FCF7CAFE48
:10B20400002305A90120059301F0ACFC08B1FCF76B
:10B21400C1FE05A801F076FD08B1FCF7BBFE1123C1
:10B2240061488DF8043002F0CDF85F4982B201A87C
:10B23400FFF76EFE08B1FCF7ADFE0021082205A859
:10B2440002F06BF859494FF0C87305A8CDE905130E
:10B25400FFF75CFE08B1FCF79DFEFFF771FF544B4E
:10B264005448059305A901F039FB08B1FCF792FE97
:10B27400042200210DEB020002F04FF84E4B4F4820
:10B28400019301A901F04EFE08B1FCF783FEAC2244
:10B29400002105A802F041F802238DF814300023A0
:10B2A4008DF816300523464A8DF817300123ADF882
:10B2B400603019928DF89030402244F25063CDE909
:10B2C400272305A93F4B40482E9300F0FEFC08B10C
:10B2D400FCF760FE01213C4800F0F4FC1C22002134
:10B2E40005A802F01AF800234FF4A032CDE9053284
:10B2F400ADF822304FF4F0228DF82430334B07920E
:10B304000A930322324B8DF8202005A80B9300F0FA
:10B31400BDFF08B1FCF73EFE2E4801F0A5FF2E4B01
:10B324001A889B78ADF8142043F001032B4A8DF85A
:10B33400163005A91B20FEF79FFA08B1FCF72AFE78
:10B3440001211B20FEF71EFB00F070F800F09AF8B4
:10B3540000F0CEF800F016F900F0E2F800F0B0F8D2
:10B3640000224FF4A4711E48FCF74BFF08B1FCF710
:10B3740011FE0321144800F01FFD08B1FCF70AFE7A
:10B38400184B194843F001039847FEE7D4E3020041
:10B394007B3900207E3A00203DAF020089AF0200D5
:10B3A400F0E30200D1B0020036E4020010003C00D9
:10B3B4004FAF02004839002029AF0200182B0020AB
:10B3C400102B00201DB10200FC340020B1B002009B
:10B3D4003FB1020041E40200ECE302002DAF0200A1
:10B3E400D834002030E402000048E801704700002F
:10B3F4001FB5CDE90001CDE90223694600220348C7
:10B40400FFF708FA05B05DF804FB00BF5CE5020035
:10B4140038B5054D044645F001054FF47A40A84778
:10B42400013CFAD138BD00BF50E502001FB5114BF5
:10B434000FCB6C4684E80F004FF080530293012336
:10B444008DF80C3003F13453A3F1D213A3F5514317
:10B45400009355238DF80530074A084800232146F8
:10B46400FFF780FA08B1FCF795FD054801F0FCFEF2
:10B4740004B010BD78E40200F1B3020058E5020004
:10B4840031E5020038B50C4B4FF0A0444FF0806515
:10B494004FF48072C4F80C556420C3F80825FFF7F4
:10B4A400B7FFC4F808556420FFF7B2FF0348BDE8AE
:10B4B400384001F0D9BE00BF00030050DFE40200B1
:10B4C40007B508238DF8063001230DF1070219464C
:10B4D4000DF10600FFF78CFF1420FFF799FF0348D6
:10B4E40001F0C2FE03B05DF804FB00BF00E50200FA
:10B4F40007B511238DF8063001230DF10702194613
:10B504000DF10600FFF774FF1420FFF781FF0348D5
:10B5140001F0AAFE03B05DF804FB00BF19E50200C8
:10B5240007B510238DF8063001230DF107021946E3
:10B534000DF10600FFF75CFF1420FFF769FF03B06D
:10B544005DF804FB07B54FF49073ADF800300023A9
:10B554008DF802300323194601AA6846FFF748FF15
:10B564001420FFF755FF9DF80610D1290CBF03489E
:10B57400034801F079FE03B05DF804FB88E402009F
:10B58400AFE4020010B58EB0FFF7DCFF00231946CC
:10B5940007AA0DF80310995401331B2BF9D1412349
:10B5A4008DF800300B4C18238DF8013000230DEB7F
:10B5B4000301185D88700133192BF8D11B23194638
:10B5C4006846FFF715FF40F2DC50FFF721FF0EB08D
:10B5D40010BD00BF3C2B002070B586B00546182274
:10B5E40000216846134E01F098FEFF2446F0010640
:10B5F400162319466A466846FFF7FAFE9DF800309E
:10B60400C02B06D04FF42070013CB04714F0FF0467
:10B61400EED14FF47A40B04705F112030DF1030265
:10B62400243512F8011F03F8011BAB42F9D106B00F
:10B6340070BD00BF50E502000369C1688B429DBF25
:10B644008268D21802F1FF3203F1FF3394BF501A1B
:10B65400581A70472DE9F041D0E902670446F61BF9
:10B664004068964288461546384405D901F02CFEB8
:10B674003D44E560BDE8F0813246AD1B01F024FE97
:10B684002A4608EB0601606801F01EFEF1E72DE989
:10B69400F843C5680646894617464FF000083469E2
:10B6A400B3687068A54228BFE418013C621B5C1BA8
:10B6B400BC4228BF3C46944228BF1446494628440D
:10B6C400224601F001FEB3682544AB4208BF0025C1
:10B6D4003F1BA044A144F560E1D14046BDE8F88396
:10B6E40010B5114C114AA2610223C4E90433104B72
:10B6F400E361A2644FF400730E4A2362E264002300
:10B7040010220D49A362E01D6362E362A3656365D1
:10B71400E365226501F034FE0849204601F030FE5D
:10B724002023A37110BD00BF803B002068E5020008
:10B73400083C0020F83B002071E5020075E502009A
:10B74400F8B5184C182300FB033503FB00402544CF
:10B75400C46A012C0F46164611D003D3022C1BD009
:10B7640000240AE02846FFF767FF864205D83246E0
:10B7740039462846FFF76EFF34462046F8BD284672
:10B78400FFF75AFF8642344628BF0446224639460C
:10B794002846FFF75FFFF0E72846BDE8F840FFF7CB
:10B7A40076BF00BF803B0020FFF79ABF6DDF704774
:10B7B40079DF70477DDF704764DF70472DE9F74F0D
:10B7C4000C9CBDF834B02788002580468A469146F3
:10B7D4002E46B8F80020B2420BDC35B12288013A7B
:10B7E400D21B92B2FF2A39D8DA55002003B0BDE843
:10B7F400F08FD8F8042052F82600019000220DF1B1
:10B80400030101A8FFF7D8FF0028EFD19DF803201A
:10B814004A4521D12288002D14BF0020022002EBCA
:10B8240009010144594519DC3DB9013292B2228023
:10B8340003F802A022880132228022880DF103013C
:10B844001A4401A8FFF7B8FF0028CFD121889DF83A
:10B8540003200A44228001250136BAE70C20C5E7FB
:10B864002DE9F341089CBDF824501746CDE9004565
:10B8740002220646FFF7A2FF48B910223946304695
:10B88400CDE9084502B0BDE8F041FFF797BF02B02B
:10B89400BDE8F0812DE9F04F00231688138090F85D
:10B8A4002D3085B007460D46144653B3082E01D8F3
:10B8B4000C2026E102A8FFF779FF002840F021813F
:10B8C40013880822CA54238801339BB21B22238085
:10B8D400CA542088013080B2208006220DF109016B
:10B8E400284401F0F1FC23889DF8082006339BB21C
:10B8F40012F0FE0218BF01222380EA542388013388
:10B904002380BB78FBB123880433B342D0D802A888
:10B91400FFF74EFF002840F0F48023880322EA5406
:10B92400238801339BB219222380EA542388BDF86B
:10B93400082001339BB2E9182380EA54120A4A70A2
:10B94400238802332380FA789AB12388D91CB14220
:10B95400AED80221E954238801339BB2012123800C
:10B96400E95423880B449BB22380EA5423880B4474
:10B9740023807A68AAB12388D91CB14298D80221BD
:10B9840092F90020E954238801339BB20A212380D1
:10B99400E954238801339BB22380EA54238801337A
:10B9A40023803B89002B40F0A0803B8A5BB1CDE92A
:10B9B40000462B460722032107F11000FFF750FF32
:10B9C400002840F09E803B8B5BB1CDE900462B46BE
:10B9D4001522142107F11800FFF742FF002840F058
:10B9E40090803A6A002A40F08F80D7F82480B8F11A
:10B9F400000F30D0B8F804302188981C8A1C024407
:10BA0400B2423FF655AFFE283FF652AF03336B54B4
:10BA1400238801339BB2FF222380EA542388013315
:10BA24009BB22380B8F80020EA54E918120A4A703D
:10BA34002088023080B22080B8F804205AB1D8F8A7
:10BA4400081000296AD0284401F03EFC2388B8F885
:10BA540004201344238097F82C30002B40F0998065
:10BA6400387800284DD03B88012B57D021888A1C78
:10BA7400B2423FF61DAF012805D17B7802330B4457
:10BA84009E42FFF415AF023E761A04A9B6B221F81D
:10BA9400086DA818FFF78EFE98BB3978BDF808200A
:10BAA400022900F0BB807B78934202D3B24240F279
:10BAB400B380012940F0B4809BB29E42C0F0B080B4
:10BAC400ADF808300821BDF80830FE2B3FF6F0AE83
:10BAD40022880133AB542288013292B22280A954C5
:10BAE40022881344238000200BE0CDE900462B4636
:10BAF4000622022107F10800FFF7B2FE00283FF4F6
:10BB040054AF05B0BDE8F08FB4F800C00CF10603E3
:10BB1400B3423FF6CDAE1188052901D80720F0E7DE
:10BB24006FF4486E01EB0E039BB24FF27D3E7345FA
:10BB3400F4D95388052BF1D96FF44860181880B2F2
:10BB44007045EBD94FF6FF70814203D0834201D098
:10BB54009942E3D8052305F80C30238801339BB2BE
:10BB640012212380E954238801339BB22380118856
:10BB7400E954E818090A4170238802339BB22380F0
:10BB84005288EA54E918120A4A702388023323803F
:10BB94002BE7BB6A002BC1D04FF000094FF00C0A11
:10BBA4004FF0160B97F82C305FFA89F293427FF628
:10BBB40057AFB96A0AFB02F201EB0208B8F8043085
:10BBC400981CFE283FF674AE208803332B54238838
:10BBD40001339BB2238005F803B0238801339BB261
:10BBE40023808A5AEA54E918120A4A7020880230DB
:10BBF40080B22080B8F804205AB1D8F8081000297F
:10BC04008CD0284401F060FB2388B8F80420134446
:10BC1400238009F10109C5E7092154E7B242FBD9A0
:10BC2400ADF808604EE730B5C0B1EAB10024651C38
:10BC34008D4206DA1588A54211D805196D789D4202
:10BC44000DD1A14210D9005D40B1013880B228B1B4
:10BC54000234A4B22318994206DB148030BD055D7A
:10BC640001352C44A4B2E2E70020F7E737B502AC73
:10BC7400002324F8023D134622460546FFF7D3FF6E
:10BC840010B1BDF80600284403B030BD72DF704720
:10BC940073DF704774DF704738B5012204460D46E0
:10BCA400B0F81414D0F81004FFF7E0FF00B10570E9
:10BCB40004F13C0204F5826104F15400BDE838400B
:10BCC400FFF7E4BF80F830107047F8B504460F461C
:10BCD40000296DD000286BD091F87A301BB191F80F
:10BCE4009830002B66D107F178060FCE4FF0000C88
:10BCF400251D84F802C00FC50FCE0FC596E80700B6
:10BD040085E8070084F830C0D7F8A4306363D7F817
:10BD1400A830A3634FF6FF7504F58263C4F820349A
:10BD2400A4F824540722614604F2264001F0F5FAEF
:10BD340023780BB984F8545094F82430002B14BFA2
:10BD4400EE231F2304F15501C4F81014A4F814348D
:10BD540004F214423846FFF79DFD40BB94F82430AA
:10BD6400002B14BFEE231F2304F23121C4F818144E
:10BD7400A4F81C3404F21C4207F13C00FFF78AFDCE
:10BD8400A8B9A269A4F8482001236269206484F850
:10BD940050006264014684F8513084F83C3004F168
:10BDA4003C0204F15400FFF771FF00B92370F8BDA1
:10BDB4000E20FCE70720FAE7F8B5077804460D469D
:10BDC400002F00F00B8100F22646A170072200210B
:10BDD400304601F0A2FAE38813B1A378012B04D012
:10BDE400E3794BB1A378022B06D1636BA3B1012293
:10BDF40084F82D2408209847334604F22C4113F884
:10BE0400012F12B99942FAD117466B1E032B56D84B
:10BE1400DFE803F0050B0F1284F82D34ECE7A37967
:10BE24001BB194F8243003B95FB9E3790BB1002F47
:10BE340047D1237A002B46D1637A002B0CBF00250F
:10BE44000425636BA570002B3FD0033D012D3CD826
:10BE54006279002A39D094F82E24002A35D184F846
:10BE64003024012284F82F240720984704F13C054C
:10BE740018220021284601F050FAE36A0122591ED3
:10BE8400914284F83C2024D9042B22D084F85120F8
:10BE940094F8242042B1A36A591E012902D9042B23
:10BEA40018BF012384F85230A178002384F850305D
:10BEB40004291ED8DFE801F07A1025385C0000253B
:10BEC400BFE70225BDE70325BBE7002384F82F3431
:10BED400CCE784F85130DBE7C4F82034C4E91063BC
:10BEE4000223012284F83C30802384F83120A4F812
:10BEF4004830A378002B5CD1636B002B6AD10020FF
:10BF040067E0022384F8313062B1072384F83C30BF
:10BF14002369A4F848300023C4F82034E368266475
:10BF24006364E6E70323F1E763696364A369A4F840
:10BF3400483012B1062384F83C306379B3B194F8E5
:10BF44002E349BB994F8303483B1022384F85030F2
:10BF540004212046FFF7A0FE0028CAD1052384F857
:10BF6400313004F58263C4F82034C2E70323F6E7D2
:10BF7400E3696364236AA4F8483012B1062384F8A1
:10BF84003C30637983B194F82E346BB994F830342F
:10BF940053B1022384F8503004212046FFF77CFE7D
:10BFA4000028A6D10623DAE70423D8E784F8313041
:10BFB4009FE72A46D4F8201404F15400FFF766FEE4
:10BFC40038B994F8301094F85400FFF761FE002853
:10BFD40092D0F8BD94F83100984790E70820F8E72C
:10BFE4000388112B10B50C460AD0262B1FD0102B1A
:10BFF40005D1C37B012B02D18388A1F8243410BD61
:10C004000022838881F82E24B1F824249A42F6D1A0
:10C014000B79002BF3D101212046FFF7CDFE002838
:10C02400EDD0A36B002BEAD0BDE810401847037A8B
:10C03400013B012BE3D889780523013191FBF3F30C
:10C0440003EB8303C91AC9B2E6E738B5044690F88E
:10C054005400FFF71FFE012384F82E34002384F8D4
:10C06400303484F8503006212046FFF715FE05468B
:10C0740038B9A1782046FFF79FFE10B1A36B03B136
:10C084009847284638BD75DF704776DF70477ADFFA
:10C0940070477BDF70470000034B1A8882420CBF55
:10C0A40018460020704700BF243E0020024B9B69C5
:10C0B40003B11847704700BF083E002037B585B26A
:10C0C4002846FFF7E9FF034670B1164C017A227B3C
:10C0D40091420BD200F10A012846FFF7D4FFE8B1E0
:10C0E400112801D0FFF7E2FF03B030BD237C00220A
:10C0F400027243B13B212846FFF7C7FF30F0080323
:10C1040001D0FFF7D3FF6369002BEDD000228DF837
:10C114000420ADF8065001A89847E5E71A7A0132E1
:10C124001A72E1E7083E002013B50B46497A0F4C1A
:10C13400024669B9D4E901101C7A002C18BF0146E3
:10C144005868FCF75EF808B1FFF7B0FF02B010BD05
:10C15400002119726369002BF8D00121ADF80600A3
:10C164008DF8041001A89847F0E700BF083E0020AE
:10C174008388B3F5FA7F28BF6FF4F97230B528BF0E
:10C184009C1805884A8838BF002495420CD84088FA
:10C19400904209D38A88A24206D303F2F310904254
:10C1A40034BF0020012030BD0020FCE70388112BA0
:10C1B40070B5014648D002D8102B1ED070BD122B8A
:10C1C40052D0502BFAD12F4BC288DB899A42F5D139
:10C1D400038A022BF2D186883046FFF75DFF0546BD
:10C1E4000028EBD001F1120000F07DF930BB686843
:10C1F400FCF71FF80028E1D009E0C37B012BDDD157
:10C204004FF6FF70FFF748FF054620B90420BDE84C
:10C214007040FFF74BBF1C4A8E88068000230372D0
:10C224001368C5F80A300A30536843601031FFF7C9
:10C234009FFF144B6872DB89002BBFD1294630461F
:10C24400BDE87040FFF770BF8088FFF725FF044604
:10C254000028B3D04068FBF7ECFF08B1FFF726FFD6
:10C264004FF6FF732380A9E786883046FFF714FF53
:10C2740005460028A2D008310A30FFF779FF68721A
:10C28400DCE700BF083E0020383E0020F8B5064633
:10C2940050B305460FCD154F3C460FC495E8070033
:10C2A40084E807003068124B3B60B8B1FFF7EFFE3B
:10C2B400C8B931680A681A604A685A600D480E4A5B
:10C2C4004FF6FF7303800D4B40F8043F0021FBF74A
:10C2D4008DFF002814BF0320002004E01846FFF758
:10C2E400D8FE0028EAD0F8BD0E20FCE7083E002066
:10C2F400383E0020243E0020C1C00200403E002001
:10C304000AB1FCF767BBFCF76EBB73B50191019CE6
:10C3140006466CB100252C46294601A8FCF76DFBA6
:10C3240018B106EB440301349D800135142DF3D17B
:10C334003046346002B070BD2DE9F0430388848830
:10C34400103B8DB005460A2B1ED8DFE803F00643E8
:10C354001D1D1D1D1D1D1D634800334EB3680CA813
:10C36400DB4340F8303D56F8041FFCF76FFB00999F
:10C3740001A8FFF7CAFF0027019B9F4207D3132C94
:10C3840018D90420FBF706FE0DB0BDE8F08301AB1D
:10C3940003EB47034FF00008B3F8049006EB0800E2
:10C3A400494608F10408FCF71EFBB8F1780FF5D1F3
:10C3B4000137E1E721461D48FCF70CFB21461C48E8
:10C3C400FCF708FBEB7B022BDED121461948FCF776
:10C3D40001FBD9E721461548FCF705FBD4E7057AAC
:10C3E40015482D09032D94BF002201222146FFF791
:10C3F40087FF022D94BF0022012221460F48FFF738
:10C404007FFF012D0E4894BF002201222146FFF731
:10C4140077FFB9E7037A002BB6D1427A0648C2F314
:10C42400C0022146F3E700BF603E0020683E0020C2
:10C43400643E00206C3E0020783E0020743E0020C4
:10C44400703E00201328014602D80248FCF7D5BAF2
:10C4540000207047643E002010B50446FFF7F2FF49
:10C46400002814BF2046142010BD70B5054616469A
:10C474000AB90E2070BD002313600028F9D00368A8
:10C48400002BF6D0C38813F003040FD10846FFF73E
:10C49400E3FFC0B214280BD02B7983420AD9EB886E
:10C4A4002A6800FB032030602046E3E70720E1E729
:10C4B4000520DFE70420DDE7AADF70470023013809
:10C4C4000B70042806D8DFE800F00306080A0C0005
:10C4D40011230B7070472123FBE73123F9E7122363
:10C4E400F7E72223F5E7007800F001007047F0B584
:10C4F4008B7891B005460C46164603B901230322F6
:10C504008DF80E3000212388ADF80C30684600F019
:10C5140004FF6946607CFFF7D1FF0DF10101A07CA7
:10C52400FFF7CCFF9DF80230E27B62F3C303227C69
:10C5340062F30413227B62F30003227D002A14BFFA
:10C544000222012262F3420300211C2209A88DF871
:10C55400023000F0E2FE637B13F0300F15D002AF1F
:10C5640003220021384600F0D8FE0DF10901E07CD9
:10C57400FFF7A4FF11238DF808309DF80A300E97B9
:10C58400012262F342038DF80A30637B8DF8243074
:10C594001422A37B8DF82530002104A800F0BDFEF1
:10C5A40003AB0493A388ADF81C30A368CDF814D072
:10C5B4001BB1E288ADF818200893A369002B2ED094
:10C5C40001AF03220021384600F0A7FEA3691A88B0
:10C5D400ADF82C205A88187BADF82E2039465A68BD
:10C5E4000A920D97FFF76AFFA3690DF10501587BC5
:10C5F400FFF764FFA2699DF80630917A61F3C303E3
:10C60400D17A61F30413117A927B002A61F3000357
:10C6140014BF0222012262F342038DF80630E3695B
:10C6240003B10C93334604AA09A92846FFF744FF33
:10C6340011B0F0BD90DF7047A5DF7047B5DF7047DC
:10C644007FB50023ADF80810ADF80A106A4602A9B8
:10C65400064603930093ADF80430FFF7EBFF05465D
:10C66400F8B1114B114CE41AE408FCF761FD240401
:10C6740044F00104034632460D492046FBF7BEF957
:10C68400BDF80020BDF8023002B91BB109492046AB
:10C69400FBF7B4F9BDF804201AB107492046FBF7AB
:10C6A400A3F9284604B070BDD0DB020028DC0200E8
:10C6B4007CE50200C6E5020005E6020088B14FF001
:10C6C400F7130360FB230371F723C380172303814C
:10C6D40041F6FB32002301618372C37282811846E2
:10C6E40070470E20704730B1A1F11703E02B04D836
:10C6F4000180002070470E2070470720704700001B
:10C7040013B5034680880C46A0B91A88232A00F082
:10C71400AF8011D8102A25D0112A54D0A37A4BB156
:10C72400E1880020FFF788FF002840F0A78001235C
:10C73400A072E37202B010BD3A2A4ED0552A68D0D6
:10C74400242AEBD11A7A0B694A73002BE6D04DF6F2
:10C754007A21ADF80400ADF80010ADF802008DF8B0
:10C76400042081E0DB7B0A790A73012B13D0022BAE
:10C7740014D0E18823898B4205D20020FFF75CFFA7
:10C7840070B90123E372217B637B8B42C6D2002004
:10C79400FFF756FFC2E70B88E380EAE74B88FBE725
:10C7A400112802D10123A372EDE7FCF7C1FC3C4A36
:10C7B4003C4B3D499B1ADB081B04024643F0010035
:10C7C400FBF712F9DFE7F723CB8017230B8141F640
:10C7D400FB338872C8728B81A0E75B89CA88934255
:10C7E40028BF1346172B0A6938BF17230B8162B180
:10C7F400C97A51B140F67721ADF80010ADF80200C6
:10C80400ADF804306946204690470023E372A372D2
:10C8140084E7DB88C988A072172B38BF17238B42A3
:10C8240028BF0B462381FFF709FF60B1FCF780FCAA
:10C834001B4A1C4B1D499B1ADB081B04024643F090
:10C844000100FBF7D1F8E27A002A7FF467AF23698D
:10C85400002B3FF463AF40F67721ADF80220228924
:10C86400ADF80010ADF8042069462046984755E716
:10C87400197A237B994228BF194689E711283FF486
:10C8840059AFFCF755FC064A064B07499B1ADB08CF
:10C894001B04024643F00100FBF7A6F84AE700BF79
:10C8A400D0DB020028DC02005BE602008CE602001A
:10C8B400B0DF704766DF7047034610B5002140883B
:10C8C400FFF7F8FF024608B91A7210BD112801D10A
:10C8D4000122F9E75B68BDE81040184760B159B11F
:10C8E4000378DE2B0AD00B684360DE2303704FF617
:10C8F400FF734380002070470E2070470820704764
:10C9040028B10378DE2B04D14180002070470E202B
:10C91400704708207047F0B5054685B00C46F1B164
:10C92400E8B10B78DE2B1AD182884B889A4204D165
:10C934000B7A13B10846FFF7BFFF2B88112B32D0B7
:10C94400512B0ED0012B0AD12B7A012B07D1A988A8
:10C954006288914203D123722046FFF7ADFF05B0F0
:10C96400F0BDAE886388B342F9D1AF79022FF6D116
:10C97400AD7B2B1F022BF2D800211022684600F059
:10C98400CCFC052D14BF4FF4C07300236946304618
:10C994008DF80070ADF80430FFF78AFF0028DED070
:10C9A40063689847DBE76388AA889A4204BF4FF616
:10C9B400FF736380D3E710DF7047000013B50446AC
:10C9C40009496846FCF759FB019808B902B010BD43
:10C9D400D0E900312046984718B16846FCF757FB68
:10C9E400F2E71120F2E700BFCCE6020013B50446DB
:10C9F40007496846FCF741FB019B0BB902B010BD27
:10CA04002046D3E9002190476846FCF740FBF3E752
:10CA1400E4E602000B4991F816335A09EC2313415A
:10CA2400DB0706D5084B9A683AB94FF480030B60CC
:10CA3400704742F20200FBF7ADBA1A6842F4800272
:10CA44001A60704700E100E040320020F7B5184F4B
:10CA54003C785CBB174E012520463570FFF7AEFFCE
:10CA6400112820D02046FFF7C1FF134B186801900E
:10CA740002A800F8054DFBF7AFFD104901A8FFF728
:10CA84009AFF0446B0FA80F0400938709DF803001C
:10CA9400FBF7C6FD3CB90A4B34701C70FFF7BAFFB4
:10CAA4002846FFF7A3FF204603B0F0BD0824FAE7A9
:10CAB400DD3E0020DC3E0020C8E60200B57F020017
:10CAC400DE3E0020014B1878704700BFDD3E002099
